{
  "_format": "hh-sol-artifact-1",
  "contractName": "ScrollGuessGame",
  "sourceName": "contracts/ScrollGuessGame.sol",
  "abi": [
    {
      "inputs": [],
      "stateMutability": "nonpayable",
      "type": "constructor"
    },
    {
      "anonymous": false,
      "inputs": [
        {
          "indexed": true,
          "internalType": "address",
          "name": "player",
          "type": "address"
        },
        {
          "indexed": false,
          "internalType": "uint256",
          "name": "guessedNumber",
          "type": "uint256"
        },
        {
          "indexed": false,
          "internalType": "uint256",
          "name": "randomNumber",
          "type": "uint256"
        }
      ],
      "name": "NumberGuessed",
      "type": "event"
    },
    {
      "stateMutability": "payable",
      "type": "fallback"
    },
    {
      "inputs": [],
      "name": "betAmount",
      "outputs": [
        {
          "internalType": "uint256",
          "name": "",
          "type": "uint256"
        }
      ],
      "stateMutability": "view",
      "type": "function"
    },
    {
      "inputs": [],
      "name": "claimReward",
      "outputs": [],
      "stateMutability": "nonpayable",
      "type": "function"
    },
    {
      "inputs": [],
      "name": "owner",
      "outputs": [
        {
          "internalType": "address",
          "name": "",
          "type": "address"
        }
      ],
      "stateMutability": "view",
      "type": "function"
    },
    {
      "inputs": [
        {
          "internalType": "uint256",
          "name": "_guess",
          "type": "uint256"
        }
      ],
      "name": "placeBet",
      "outputs": [],
      "stateMutability": "payable",
      "type": "function"
    },
    {
      "inputs": [],
      "name": "randomNumber",
      "outputs": [
        {
          "internalType": "uint256",
          "name": "",
          "type": "uint256"
        }
      ],
      "stateMutability": "view",
      "type": "function"
    },
    {
      "inputs": [],
      "name": "revealRandomNumber",
      "outputs": [
        {
          "internalType": "uint256",
          "name": "",
          "type": "uint256"
        }
      ],
      "stateMutability": "view",
      "type": "function"
    },
    {
      "inputs": [
        {
          "internalType": "address",
          "name": "",
          "type": "address"
        }
      ],
      "name": "userGuesses",
      "outputs": [
        {
          "internalType": "uint256",
          "name": "",
          "type": "uint256"
        }
      ],
      "stateMutability": "view",
      "type": "function"
    },
    {
      "inputs": [],
      "name": "withdrawFunds",
      "outputs": [],
      "stateMutability": "nonpayable",
      "type": "function"
    },
    {
      "stateMutability": "payable",
      "type": "receive"
    }
  ],
  "bytecode": "0x608060405234801561001057600080fd5b50600080546001600160a01b031916331790556105d1806100326000396000f3fe6080604052600436106100795760003560e01c8063b88a802f1161004b578063b88a802f14610122578063ccbac9f514610137578063d24257c01461014d578063dd5da6281461016857005b806310fe7c481461008257806324600fc314610095578063445a5fa3146100aa5780638da5cb5b146100ea57005b3661008057005b005b6100806100903660046104a0565b61017d565b3480156100a157600080fd5b5061008061029e565b3480156100b657600080fd5b506100d76100c53660046104b9565b60026020526000908152604090205481565b6040519081526020015b60405180910390f35b3480156100f657600080fd5b5060005461010a906001600160a01b031681565b6040516001600160a01b0390911681526020016100e1565b34801561012e57600080fd5b50610080610307565b34801561014357600080fd5b506100d760015481565b34801561015957600080fd5b506100d7662386f26fc1000081565b34801561017457600080fd5b506100d761041b565b662386f26fc1000034146101e65760405162461bcd60e51b815260206004820152602560248201527f42657420616d6f756e74206d7573742062652065786163746c7920302e30312060448201526432ba3432b960d91b60648201526084015b60405180910390fd5b33600090815260026020526040902054156102435760405162461bcd60e51b815260206004820152601d60248201527f596f75206861766520616c726561647920706c6163656420612062657400000060448201526064016101dd565b336000818152600260209081526040918290208490556001548251858152918201527fab87b376fb862a8d9d0083cba3329c7822607cf2eeae4314b8a23340b86c44b5910160405180910390a261029861044d565b60015550565b6000546001600160a01b031633146102c85760405162461bcd60e51b81526004016101dd906104e9565b6000805460405147926001600160a01b039092169183156108fc02918491818181858888f19350505050158015610303573d6000803e3d6000fd5b5050565b336000908152600260205260409020546103635760405162461bcd60e51b815260206004820152601c60248201527f596f7520686176656e277420706c61636564206120626574207965740000000060448201526064016101dd565b33600090815260026020526040902054600154146103c35760405162461bcd60e51b815260206004820152601860248201527f596f75722067756573732077617320696e636f7272656374000000000000000060448201526064016101dd565b60006103d7662386f26fc100006002610549565b604051909150339082156108fc029083906000818181858888f19350505050158015610407573d6000803e3d6000fd5b505033600090815260026020526040812055565b600080546001600160a01b031633146104465760405162461bcd60e51b81526004016101dd906104e9565b5060015490565b6000600a424460405160200161046d929190918252602082015260400190565b6040516020818303038152906040528051906020012060001c6104909190610566565b61049b906001610588565b905090565b6000602082840312156104b257600080fd5b5035919050565b6000602082840312156104cb57600080fd5b81356001600160a01b03811681146104e257600080fd5b9392505050565b6020808252602a908201527f4f6e6c7920636f6e7472616374206f776e65722063616e2063616c6c207468696040820152693990333ab731ba34b7b760b11b606082015260800190565b634e487b7160e01b600052601160045260246000fd5b808202811582820484141761056057610560610533565b92915050565b60008261058357634e487b7160e01b600052601260045260246000fd5b500690565b808201808211156105605761056061053356fea264697066735822122099e69f9b5de4276a27d2ecbae239638734d8c3d6b329a726429ecd52d034b3c264736f6c63430008140033",
  "linkReferences": {},
  "deployedLinkReferences": {}
}